:100000000C94E0000C9408010C9408010C94080175
:100010000C9408010C9408010C9408010C9408013C
:100020000C9408010C9408010C9408010C94FC0534
:100030000C9408010C9408010C9408010C9408011C
:100040000C94B2050C9408010C9480050C945A058C
:100050000C9408010C9408010C9408010C940801FC
:100060000C9408010C94080100407A10F35A00A087
:10007000724E18090010A5D4E80000E87648170071
:1000800000E40B54020000CA9A3B000000E1F505B1
:10009000000080969800000040420F000000A086FB
:1000A00001000000102700000000E803000000002D
:1000B0006400000000000A000000000001000000D1
:1000C00000002C76D888DC674F0823DFC1DFAE59EB
:1000D000E1B1B796E5E3E453C63AE651997696E87E
:1000E000E6C28426EB898C9B62ED407C6FFCEFBC02
:1000F0009C9F40F2BAA56FA5F490055A2AF75C932D
:100100006B6CF9676DC11BFCE0E40D47FEF520E662
:10011000B500D0ED902E0300943577050080841E45
:10012000080000204E0A000000C80C333333330FA0
:10013000986E12831141EF8D2114893BE65516CF3D
:10014000FEE6DB18D1844B381BF77C1D901DA4BB49
:10015000E424203284725E228100C9F124ECA1E5FE
:100160003D2700000000240027002A0000000000B6
:10017000250028002B0000000008000201000003F9
:100180000407000000000000000000000000230041
:1001900026002900040404040404040402020202E8
:1001A000020203030303030301020408102040803A
:1001B000010204081020010204081020FD06900A24
:1001C00011241FBECFEFD8E0DEBFCDBF11E0A0E00D
:1001D000B1E0E6EBF2E202C005900D92A435B10762
:1001E000D9F722E0A4E5B1E001C01D92AB34B2071B
:1001F000E1F710E0CFEDD0E004C02197FE010E94AE
:10020000560FCE3DD107C9F70E949A070C944E11A4
:100210000C9400008F929F92AF92BF92FF920F9327
:100220001F93CF93DF93F0902C022BE02F1508F44F
:100230004CC020912E0208E512E0021B110927FD97
:100240001395000F111F000F111F20912D02C8E8F8
:10025000D0E0C21BD10927FDD395CC0FDD1FCC0FF9
:10026000DD1F4E010D2E000CAA08BB089801012EBF
:10027000000C440B550B281939094A095B09DC01AC
:100280000E94320E24EB30E040E050E00E94080E65
:10029000820E931EA41EB51E8C169D062CF0E8013E
:1002A000801691060CF4E4012297CC0FDD1F2FB7C6
:1002B000F8948F2D90E0FC01EE0FFF1FE80FF91F5F
:1002C000EF5FFD4FD283C1832FBFDF91CF911F918D
:1002D0000F91FF90BF90AF909F908F900895AF9235
:1002E000BF92CF92DF92EF92FF920F931F93CF9323
:1002F000DF936C017B018B01040F151FEB015E0185
:10030000AE18BF08C017D10759F06991D601ED9119
:10031000FC910190F081E02DC6010995892B79F7B8
:10032000C501DF91CF911F910F91FF90EF90DF906A
:10033000CF90BF90AF900895FC01538D448D252F31
:1003400030E0842F90E0821B930B541710F0CF966F
:10035000089501970895FC01918D828D981761F0A1
:10036000A28DAE0FBF2FB11D5D968C91928D9F5FB8
:100370009F73928F90E008958FEF9FEF0895FC0197
:10038000918D828D981731F0828DE80FF11D858D4A
:1003900090E008958FEF9FEF0895FC01918D228DDD
:1003A000892F90E0805C9F4F821B91098F73992762
:1003B000089584E691E00E94CD0121E0892B09F4A3
:1003C00020E0822F089580E090E0892B29F00E94A0
:1003D000D90181110C9400000895FC01A48DA80F8F
:1003E000B92FB11DA35ABF4F2C91848D90E0019677
:1003F0008F739927848FA689B7892C93A089B18997
:100400008C91837080648C93938D848D981306C037
:100410000288F389E02D80818F7D80830895EF929B
:10042000FF920F931F93CF93DF93EC0181E0888FAE
:100430009B8D8C8D98131AC0E889F989808185FF7E
:1004400015C09FB7F894EE89FF896083E889F98920
:1004500080818370806480839FBF81E090E0DF9122
:10046000CF911F910F91FF90EF900895F62E0B8D75
:1004700010E00F5F1F4F0F731127E02E8C8D8E1130
:100480000CC00FB607FCFACFE889F989808185FF97
:10049000F5CFCE010E94ED01F1CFEB8DEC0FFD2FDA
:1004A000F11DE35AFF4FF0829FB7F8940B8FEA8952
:1004B000FB8980818062CFCFCF93DF93EC01888D61
:1004C0008823B9F0AA89BB89E889F9898C9185FDCF
:1004D00003C0808186FD0DC00FB607FCF7CF8C915D
:1004E00085FFF2CF808185FFEDCFCE010E94ED0127
:1004F000E9CFDF91CF91089590E0FC01EA58FE4FDB
:100500002491FC01E855FE4F3491FC01EC56FE4F5E
:10051000E491EE23C9F0222339F0233001F1A8F44D
:10052000213019F1223029F1F0E0EE0FFF1FE459DC
:10053000FE4FA591B4918FB7F894EC91611126C04C
:1005400030953E233C938FBF08952730A9F0283083
:10055000C9F0243049F7809180008F7D03C08091DD
:1005600080008F7780938000DFCF84B58F7784BD44
:10057000DBCF84B58F7DFBCF8091B0008F778093E8
:10058000B000D2CF8091B0008F7DF9CF3E2BDACF73
:10059000CF93DF9390E0FC01E855FE4F24918C56F9
:1005A0009E4FFC0184918823D1F090E0880F991F21
:1005B000FC01EE59FE4FA591B491FC01E459FE4FA8
:1005C000C591D49161110EC09FB7F8948C91E22F20
:1005D000E0958E238C932881E223E8839FBFDF91EF
:1005E000CF9108958FB7F894EC91E22BEC938FBFE5
:1005F000F6CF3FB7F89480915A0190915B01A0919A
:100600005C01B0915D0126B5A89B05C02F3F19F094
:100610000196A11DB11D3FBFBA2FA92F982F882782
:10062000BC01CD01620F711D811D911D42E0660F5D
:10063000771F881F991F4A95D1F708958F929F922F
:10064000AF92BF92CF92DF92EF92FF924B015C018B
:100650000E94F9026B017C010E94F9026C197D096C
:100660008E099F09683E734081059105A8F321E03A
:10067000821A9108A108B10888EEC80E83E0D81E3E
:10068000E11CF11C81149104A104B10429F7FF902D
:10069000EF90DF90CF90BF90AF909F908F90089594
:1006A000089590E080E00895CF93DF93EC0160E03F
:1006B0008E810E947C0261E08E810E947C0260E05B
:1006C0008E810E947C028BE891E00197F1F7DF9127
:1006D000CF910895CF92DF92EF92FF920F931F93E5
:1006E000CF93DF936C017C0187E0E80EF11CD0E032
:1006F000C0E0062F10E0B8010C2E02C0759567957A
:100700000A94E2F76170F70181917F010E947C02F7
:100710002196C430D10579F7C601DF91CF911F91A1
:100720000F91FF90EF90DF90CF900C945403CF92F5
:10073000DF92EF92FF920F931F93CF93DF93EC0121
:10074000F62E642F8C810E947C028D818F3F19F0E0
:1007500060E00E947C020F2D10E08F8584FF25C091
:100760006E0187E0C80ED11CF12CE12CB8010E2CD3
:1007700002C0759567950A94E2F76170F601819160
:100780006F010E947C02FFEFEF1AFF0A88E0E81673
:10079000F10461F7CE01DF91CF911F910F91FF908E
:1007A000EF90DF90CF900C945403B80184E07595DE
:1007B00067958A95E1F7CE010E946A036F2DCE01FD
:1007C000DF91CF911F910F91FF90EF90DF90CF902D
:1007D0000C946A0340E0682F8FE292E00C94970338
:1007E000CF93DF93823029F490913E0298609093EA
:1007F0003E02809342021092430280E480934402BE
:1008000080E18093450280E58093460261E080911B
:1008100033020E94C802809134028F3F19F061E0D8
:100820000E94C80261E0809135020E94C802CFE2B6
:10083000D2E09E012F52324080913E0284FD0BC0D7
:1008400084E090E021962817390744F461E08E8116
:100850000E94C802EECF88E090E0F4CF8BE39DE0E9
:100860000197F1F760E0809133020E947C0260E022
:10087000809135020E947C02809134028F3F19F0F2
:1008800060E00E947C0280913E0284FD39C063E0FA
:100890008FE292E00E946A03CBE4D6E4CE01019796
:1008A000F1F763E08FE292E00E946A032197F1F78B
:1008B00063E08FE292E00E946A0383E592E0019791
:1008C000F1F762E08FE292E00E946A0380913E02BB
:1008D00080620E94EA0384E080933F028CE00E94E1
:1008E000EA0381E00E94EA038BE39FE10197F1F7BD
:1008F00082E08093400286E0DF91CF910C94EA037E
:1009000080620E94EA038BE496E40197F1F78091FC
:100910003E0280620E94EA0383E592E00197F1F7CC
:1009200080913E0280620E94EA03D0CF41E00E94A3
:10093000970381E090E008958F929F92AF92BF92CB
:100940000F931F93CF93DF93CDB7DEB7A1970FB669
:10095000F894DEBF0FBECDBF19A2423008F44AE0C2
:100960008E010F5D1F4F842E912CB12CA12CA5015F
:1009700094010E94710EE62FB901CA01EA3044F5D4
:10098000E05DD801EE938D01232B242B252B79F7E5
:1009900090E080E0109769F0FD0101900020E9F7F8
:1009A0003197AF014A1B5B0BBD0184E691E00E94C9
:1009B0006F01A1960FB6F894DEBF0FBECDBFDF91D9
:1009C000CF911F910F91BF90AF909F908F900895FE
:1009D000E95CD7CFFC0101900020E9F73197AF0126
:1009E000481B590BBC018FE292E00C946F01CF932E
:1009F000DF93EC0188819981009711F00E94F80F34
:100A0000198218821D821C821B821A82DF91CF916B
:100A10000895FC0180819181009711F00C94F80FEA
:100A200008950F931F93CF93DF93EC0188819981F1
:100A3000009759F02A813B812617370730F081E073
:100A4000DF91CF911F910F9108958B016F5F7F4FC1
:100A50000E948110009759F0998388831B830A8331
:100A60002C813D81232B59F7FC011082E8CF80E0D7
:100A7000E7CFEF92FF920F931F93CF93DF93EC0199
:100A80007B018A01BA010E94110581110BC0CE01C0
:100A90000E94F704CE01DF91CF911F910F91FF903B
:100AA000EF9008951D830C83B701888199810E947E
:100AB0004711F0CF1F920F920FB60F9211242F9370
:100AC0003F934F935F936F937F938F939F93AF93D6
:100AD000BF93EF93FF9384E691E00E94ED01FF91B5
:100AE000EF91BF91AF919F918F917F916F915F91A6
:100AF0004F913F912F910F900FBE0F901F9018951F
:100B00001F920F920FB60F9211242F938F939F93E2
:100B1000EF93FF93E0917401F09175018081E09172
:100B20007A01F0917B0182FD1BC0908180917D0153
:100B30008F5F8F7320917E01821741F0E0917D01DC
:100B4000F0E0EC59FE4F958F80937D01FF91EF917E
:100B50009F918F912F910F900FBE0F901F9018951E
:100B60008081F4CF1F920F920FB60F9211242F9312
:100B70003F938F939F93AF93BF9380915601909132
:100B80005701A0915801B09159013091550123E0CE
:100B9000230F2D3758F50196A11DB11D2093550146
:100BA0008093560190935701A0935801B093590137
:100BB00080915A0190915B01A0915C01B0915D011F
:100BC0000196A11DB11D80935A0190935B01A093E2
:100BD0005C01B0935D01BF91AF919F918F913F9167
:100BE0002F910F900FBE0F901F90189526E8230F9E
:100BF0000296A11DB11DD2CF1F920F920FB60F9278
:100C000011242F933F934F935F936F937F938F9311
:100C10009F93AF93BF93CF93DF93EF93FF93809115
:100C20005401C0912502D0E087FF24C010928500B6
:100C300010928400809154018F5F809354018091C1
:100C40005401082E000C990B8C179D0724F48091F9
:100C500054018C30C4F180918400909185000496F9
:100C600080349C4908F47AC080918400909185007A
:100C7000049676C080915401082E000C990B8C17B5
:100C80009D07C4F6E09154018E2FEE0F990BFC01E5
:100C9000EE0FFF1FE80FF91FEF5FFD4F808186FF0A
:100CA000C9CFE09154018E2FEE0F990BFC01EE0F8E
:100CB000FF1FE80FF91FEF5FFD4F808160E08F732A
:100CC0000E947C02B7CF2091840030918500E09192
:100CD00054018E2FEE0F990BFC01EE0FFF1FE80F52
:100CE000F91FEF5FFD4F81819281820F931F9093D7
:100CF000890080938800E09154018E2FEE0F990BAC
:100D0000FC01EE0FFF1FE80FF91FEF5FFD4F808121
:100D100086FF11C0E09154018E2FEE0F990BFC015C
:100D2000EE0FFF1FE80FF91FEF5FFD4F808161E0BD
:100D30008F730E947C02FF91EF91DF91CF91BF9161
:100D4000AF919F918F917F916F915F914F913F9163
:100D50002F910F900FBE0F901F90189580E49CE983
:100D600090938900809388008FEF80935401E3CFA4
:100D7000CF92DF92EF92FF920F931F93E82FF92FFC
:100D800005C0015011092109310961F190819623B3
:100D90009417B9F305C0015011092109310911F166
:100DA000908196239413F7CFC12CD12CE12CF12CF8
:100DB0000AC08FEFC81AD80AE80AF80A0C151D05F0
:100DC0002E053F0579F080818623841791F36C2DE1
:100DD0007D2D8E2D9F2D1F910F91FF90EF90DF9015
:100DE000CF90089560E070E080E090E01F910F9157
:100DF000FF90EF90DF90CF900895CF93109267010E
:100E00001092660188EE93E0A0E0B0E08093680164
:100E100090936901A0936A01B0936B018AE091E01D
:100E2000909365018093640185EC90E0909371014B
:100E30008093700184EC90E0909373018093720131
:100E400080EC90E0909375018093740181EC90E0C8
:100E5000909377018093760182EC90E090937901F2
:100E60008093780186EC90E090937B0180937A01E7
:100E700010927D0110927E0110927F0110928001EC
:100E800010923202109231028CE191E09093300284
:100E900080932F028CE080933302CFEFC093340213
:100EA0008BE08093350285E08093360284E0809366
:100EB000370283E08093380282E0809339021092F7
:100EC0003A0210923B0210923C0210923D021092A4
:100ED0003E0281E00E94F003809125028C3038F5BB
:100EE00091E0980F9093250280932C0290E0FC01F2
:100EF000EE0FFF1FE80FF91FEF5FFD4F88EB9BE040
:100F00009283818310922702109226021092290266
:100F10001092280210922B0210922A0250E040E018
:100F200066E471E086E292E0CF910C943905C093BB
:100F30002C02E8CFCF93DF93CDB7DEB7E3970FB6A0
:100F4000F894DEBF0FBECDBF789484B5826084BDB7
:100F500084B5816084BD85B5826085BD85B58160BD
:100F600085BD80916E00816080936E00109281003B
:100F700080918100826080938100809181008160F6
:100F800080938100809180008160809380008091B7
:100F9000B10084608093B1008091B0008160809343
:100FA000B00080917A00846080937A0080917A000A
:100FB000826080937A0080917A00816080937A00C9
:100FC00080917A00806880937A001092C10082E05C
:100FD0000E94F00310926001109261011092620170
:100FE0001092630184E291E00E94EA0461E088E0EB
:100FF0000E94C80260E08AE00E94C80261E08DE0C1
:101000000E94C80261E089E00E94C80280912C021F
:101010008C3008F051C061E086E00E94C8028091E7
:101020002C02282F30E0F901EE0FFF1FE20FF31F13
:10103000EF5FFD4F9081907C9660908310922D021F
:1010400010922E022CE0622F0E944A0F829FB00164
:10105000112430E020E0AB01420F531FFA01EE0FE4
:10106000FF1FE40FF51FEF5FFD4F908196FD16C047
:101070002F5F3F4F2C30310571F781110FC0109257
:10108000800082E08093810010928500109284009D
:10109000B19A80916F00826080936F00E0912C0282
:1010A0008E2F90E0FC01EE0FFF1FE80FF91FEF5F9E
:1010B000FD4F80818064808390E080E00E940A017F
:1010C000E0917401F091750182E08083E0917001FC
:1010D000F09171011082E0917201F09173018FEC37
:1010E000808310927C01E0917801F091790186E093
:1010F0008083E0917601F091770180818061808327
:10110000E0917601F0917701808188608083E091A1
:101110007601F0917701808180688083E09176018B
:10112000F091770180818F7D8083CE0101967C01D3
:1011300093E0692E712C22EB222E21E0322E3EE923
:10114000432E31E0532E40E0842E40E0942E86E37F
:1011500091E00E94EA0490E490937C0080917A00F0
:10116000806480937A0080917A0086FDFCCF809124
:10117000780060917900762F682F072E000C880B7D
:10118000990B0E94EB0C20E030E040E85AE30E940B
:101190004A0D20E030E040EA50E40E944A0D20E091
:1011A00030E040E05FE30E94A20E20E030E048EC37
:1011B00052E40E944A0D5B016C01E0914202E23070
:1011C00008F081C1E150F0E0E15DFD4F8489806865
:1011D0000E94EA0326E636E646EE5FE3C601B50165
:1011E0000E944A0D20E030E040E052E40E94A30E4D
:1011F0005B016C01A0926001B0926101C09262013A
:10120000D09263011BA21AA21DA21CA21FA21EA2A1
:10121000E2EBE9831A82F70101900020E9F73197A8
:10122000AF014E195F09B701CE0182960E943905C0
:1012300019A618A61BA61AA61DA61CA6870122E0A1
:1012400044E0C601B5010E94940A009709F43DC12B
:10125000FC0101900020E9F73197AF01481B590BC1
:10126000BC01CE0188960E9439051A8219821C821F
:101270001B821E821D8268A579A56115710529F062
:101280004CA55DA5C7010E943905CAA0DBA0C11409
:10129000D10409F41FC10EA11FA101151105B1F060
:1012A0008D819E81080F191FB801C7010E94110589
:1012B000882309F40FC129813A818D819E81B6016D
:1012C000820F931F0E9447111E830D830D811E8183
:1012D0000F5F1F4FB801C7010E9411058111FEC0A9
:1012E000C7010E94F7041FA61EA619AA18AA1BAAC6
:1012F0001AAA69817A816115710531F04D815E818B
:10130000CE018E960E943905C7010E940905CE01C3
:1013100088960E940905CE0182960E94090523E362
:1013200033E345EC52E4609160017091610180917A
:101330006201909163010E94450F87FDDCC089E442
:1013400091E00E94EA044AA95BA96EA57FA58FE2FD
:1013500092E00E946F0161E08DE00E947C0260EDEE
:1013600077E080E090E00E941E0360E08DE00E9444
:101370007C0268EE73E080E090E00E941E0360E073
:1013800088E00E947C02C3010197F1F761E088E0E8
:101390000E947C0283E290E00197F1F760E088E030
:1013A0000E947C02F1016491F2018491E82FF0E047
:1013B000EE0FFF1FE657FE4F8591949100E412E473
:1013C0002FE030E0462F0E94B806611571058105B7
:1013D000910529F06F5F7F4F8F4F9F4F9F700E9445
:1013E000EB0C26E933E44BE05DE30E944A0D20E07C
:1013F00030E040E05FE30E944A0D0E940F0F7093BF
:101400005F0160935E015B01770FCC08DD084AE065
:10141000C601B501D7FE0DC06DE284E691E00E94E1
:101420000F0266277727CB016A197B098C099D0972
:101430004AE00E949C0480915E0190915F010A97AE
:1014400094F58DE290E00E940A0164E670E080E08D
:1014500090E00E941E038AE590E00E940A0164E683
:1014600070E080E090E00E941E0387E890E00E9418
:101470000A0164E670E080E090E00E941E0384EBC5
:1014800090E00E940A0168EE73E080E090E00E9424
:101490001E0390E080E00E940A0168EB7BE080E0A0
:1014A00090E00E941E03CE018E960E9409058114D1
:1014B000910409F44CCE0E94D901882309F447CE47
:1014C0000E94000044CEE1E07ECECE0188960E94CC
:1014D000F704CBCEC7010E94F704F8CE29813A81E8
:1014E0008D819E8167E471E0820F931F0E944711F6
:1014F0001E830D83F8CE4AA95BA96EA57FA58FE256
:1015000092E00E946F0161E089E00E947C0260ED40
:1015100077E080E090E00E941E0360E089E027CF42
:1015200086E292E00C940905EF920F931F93CF93FC
:10153000DF93E80134E047FD34E1042E000C550B45
:1015400057FF03C0519541955109E32E022F242FD7
:10155000AE010E94B20ACE01DF91CF911F910F918F
:10156000EF900895A9E0B0E0E8EBFAE00C94400EAB
:101570006A01F22EB02E102FFBE3AF2EA01608F456
:101580001BE31F5F012F27E0AE014F5F5F4F0E94FB
:10159000110CBC018981982F9970913009F43FC0DA
:1015A0009BE2E1FC04C09E2D9170E0FC3AC05E2DF0
:1015B0005071E82FE87083FF46C084E0911101C0AC
:1015C00083E0EF2DE81B8F1508F0E0E0D6018E2FA9
:1015D00020E2552351F1992329F0D6019C93C601AD
:1015E00001966C0196012D5F3F4FE2FE24C08EE410
:1015F000D6018C9391E411969C93119712968C933B
:10160000D9018E2F90E281111BC0E20FF32FF11D43
:1016100010828EEF9FEF2996ECE00C945C0E9DE219
:10162000C6CF90E2C4CF2D9381508111FCCFCE0E56
:10163000D11CE0E0D0CF8EE6D6018C9391E6DBCFD3
:101640009D938150E0CF482F447082FF3DC084E0DD
:10165000911101C083E08F1510F4EF2DE81BD60126
:101660008E2F20E2552309F1992329F0D6019C936E
:10167000C60101966C0196012D5F3F4FE2FE1BC033
:1016800089E4D6018C938EE411968C93119786E4AD
:1016900012968C93D9018E2F90E2882309F4B5CF4E
:1016A0009D938150FACF2D9381508111FCCFCE0EA6
:1016B000D11CE0E0D9CF89E6D6018C938EE6119655
:1016C0008C93119786E6E4CF9B0177FF02C030E050
:1016D00020E0A1E0B0E0911102C0B0E0A0E0F9018B
:1016E0003196AE0FBF1F8B2C912CBB2009F461C02B
:1016F0005401EFEFAE1ABE0AAA0DBB1DFA161B0667
:1017000019F014F04F2D4A1B511188C0E3FC59C049
:101710007601A42FB0E2A1114FC0C40ED11C9923B1
:1017200009F45BC040E0D6011196F60190836D018B
:10173000552309F448C0012F060F9A81582F507184
:1017400084FF03C0913309F4015010160CF047C018
:10175000093008F008E0EEE2FE2E5B01A01AB108A5
:1017600085019194819491082F3F320729F4D60185
:10177000FC92F60131966F016217730794F102171C
:1017800013077CF5DB01A21BB30BAA24A394B12C95
:10179000AC0EBD1EAA0DBB1D11968C9121503109B6
:1017A000D601119628153905F4F0F60180836D01F4
:1017B000DBCFB12CA12CA0CFF701B1937F01A150B9
:1017C000AACF9111B0CFD601942F50E302C05D9300
:1017D00091509111FCCFC40ED11C40E0ACCF01E080
:1017E000BACF80E3DBCF6217730731F4963388F406
:1017F000953311F4552369F0F6018083FD01842FA0
:1018000090E2811108C0A40FB11D1C9290E080E00D
:1018100002CF81E3F1CF91938150F3CF911183CF28
:101820008ACF283008F027E03327DA01990F311DDD
:1018300087FD916000966105710539F432602E5F75
:101840003D9330E32A95E1F708959F3F30F08038CB
:101850007105610509F03C5F3C5F3D93913008F0F4
:101860008068911DDF93CF931F930F93FF92EF92A8
:10187000192F987F9695E92F96959695E90FFF2752
:10188000EE53FF4F99273327EE24FF24A701E701EA
:1018900005900894079428F4360FE71EF81E491F98
:1018A000511D660F771F881F991F0694A1F7059099
:1018B000079428F4E70EF81E491F561FC11D770F25
:1018C000881F991F661F0694A1F70590079428F4B6
:1018D000F80E491F561FC71FD11D880F991F661F7D
:1018E000771F0694A1F70590079420F4490F561F1F
:1018F000C71FD81F990F661F771F881F0694A9F767
:1019000084911095177041F0D695C79557954795D6
:10191000F794E7941A95C1F7E8E6F0E0689415901B
:10192000159135916591959105907FE27395E11838
:10193000F10A430B560BC90BD009C0F7E10CF11E9D
:10194000431F561FC91FD01D7EF4703311F48A95B2
:10195000E6CFE894015030F0080F0AF40027021790
:1019600008F4202F2395022F7A3328F079E37D9312
:101970002A95E9F710C07D932A9589F606949795E4
:101980006795379517951794E118F10A430B560B95
:10199000C90BD00998F023957E9173957A3308F09E
:1019A00070E37C932013B8F77E9170617D9330F0E3
:1019B000839571E37D9370E32A95E1F71124EF900D
:1019C000FF900F911F91CF91DF91992787FD9095FF
:1019D0000895E89409C097FB3EF490958095709522
:1019E00061957F4F8F4F9F4F9923A9F0F92F96E96B
:1019F000BB279395F695879577956795B795F111E0
:101A0000F8CFFAF4BB0F11F460FF1BC06F5F7F4F7C
:101A10008F4F9F4F16C0882311F096E911C077238E
:101A200021F09EE8872F762F05C0662371F096E897
:101A3000862F70E060E02AF09A95660F771F881F66
:101A4000DAF7880F9695879597F90895990F00080A
:101A5000550FAA0BE0E8FEEF16161706E807F90780
:101A6000C0F012161306E407F50798F0621B730B1B
:101A7000840B950B39F40A2661F0232B242B252B9C
:101A800021F408950A2609F4A140A6958FEF811D3F
:101A9000811D08950E945D0D0C94CE0D0E94C00D15
:101AA00038F00E94C70D20F0952311F00C94B70D6B
:101AB0000C94BD0D11240C94020E0E94DF0D70F3E6
:101AC000959FC1F3950F50E0551F629FF001729FE3
:101AD000BB27F00DB11D639FAA27F00DB11DAA1FF2
:101AE000649F6627B00DA11D661F829F2227B00D3F
:101AF000A11D621F739FB00DA11D621F839FA00DCA
:101B0000611D221F749F3327A00D611D231F849F19
:101B1000600D211D822F762F6A2F11249F57504070
:101B20009AF0F1F088234AF0EE0FFF1FBB1F661FEB
:101B3000771F881F91505040A9F79E3F510580F0B4
:101B40000C94B70D0C94020E5F3FE4F3983ED4F36F
:101B5000869577956795B795F795E7959F5FC1F758
:101B6000FE2B880F911D9695879597F9089597F903
:101B70009F6780E870E060E008959FEF80EC089533
:101B800000240A941616170618060906089500245C
:101B90000A9412161306140605060895092E0394D6
:101BA000000C11F4882352F0BB0F40F4BF2B11F44A
:101BB00060FF04C06F5F7F4F8F4F9F4F089557FDA9
:101BC0009058440F551F59F05F3F71F04795880FAB
:101BD00097FB991F61F09F3F79F087950895121642
:101BE00013061406551FF2CF4695F1DF08C01616EE
:101BF00017061806991FF1CF86957105610508949F
:101C00000895E894BB2766277727CB0197F90895B5
:101C1000052E97FB1EF400940E941F0E57FD07D05F
:101C20000E94710E07FC03D04EF40C941F0E5095C9
:101C30004095309521953F4F4F4F5F4F08959095B8
:101C40008095709561957F4F8F4F9F4F08950E94AB
:101C5000930EA59F900DB49F900DA49F800D911D94
:101C600011240895B7FF0C94270E0E94270E821BA3
:101C7000930B08952F923F924F925F926F927F92B3
:101C80008F929F92AF92BF92CF92DF92EF92FF928C
:101C90000F931F93CF93DF93CDB7DEB7CA1BDB0B38
:101CA0000FB6F894DEBF0FBECDBF09942A883988DD
:101CB00048885F846E847D848C849B84AA84B984E4
:101CC000C884DF80EE80FD800C811B81AA81B981F0
:101CD000CE0FD11D0FB6F894DEBF0FBECDBFED0104
:101CE0000895A1E21A2EAA1BBB1BFD010DC0AA1F5D
:101CF000BB1FEE1FFF1FA217B307E407F50720F075
:101D0000A21BB30BE40BF50B661F771F881F991FEF
:101D10001A9469F760957095809590959B01AC0138
:101D2000BD01CF010895A29FB001B39FC001A39F41
:101D3000700D811D1124911DB29F700D811D112404
:101D4000911D08955058BB27AA270E94BA0E0C94E3
:101D5000CE0D0E94C00D38F00E94C70D20F039F45E
:101D60009F3F19F426F40C94BD0D0EF4E095E7FBAB
:101D70000C94B70DE92F0E94DF0D58F3BA176207D4
:101D800073078407950720F079F4A6F50C94010EEB
:101D90000EF4E0950B2EBA2FA02D0B01B901900186
:101DA0000C01CA01A0011124FF27591B99F0593FCA
:101DB00050F4503E68F11A16F040A22F232F342F12
:101DC0004427585FF3CF469537952795A795F04060
:101DD0005395C9F77EF41F16BA0B620B730B840B75
:101DE000BAF09150A1F0FF0FBB1F661F771F881F2D
:101DF000C2F70EC0BA0F621F731F841F48F4879585
:101E000077956795B795F7959E3F08F0B0CF939576
:101E1000880F08F09927EE0F9795879508950E94EF
:101E2000160F6894B1110C94020E08950E94E70DEC
:101E300088F09F5798F0B92F9927B751B0F0E1F08B
:101E4000660F771F881F991F1AF0BA95C9F714C03B
:101E5000B13091F00E94010EB1E008950C94010E92
:101E6000672F782F8827B85F39F0B93FCCF3869574
:101E700077956795B395D9F73EF4909580957095D1
:101E800061957F4F8F4F9F4F08950E94260D08F454
:101E90008FEF0895991B79E004C0991F961708F0F9
:101EA000961B881F7A95C9F780950895EE0FFF1F3E
:101EB0000590F491E02D09940F931F93CF93DF9336
:101EC0008230910510F482E090E0E0914902F091B7
:101ED0004A0230E020E0B0E0A0E0309799F421150C
:101EE000310509F44AC0281B390B24303105D8F5D7
:101EF0008A819B816115710589F1FB01938382833E
:101F0000FE0111C040815181028113814817590798
:101F1000E0F04817590799F4109761F012960C9366
:101F2000129713961C933296CF01DF91CF911F9198
:101F30000F9108950093490210934A02F4CF21159E
:101F4000310551F04217530738F0A901DB019A011E
:101F5000BD01DF01F801C1CFEF01F9CF90934A0233
:101F600080934902CDCFFE01E20FF31F819391933D
:101F70002250310939832883D7CF209147023091ED
:101F80004802232B41F42091020130910301309348
:101F90004802209347022091000130910101211550
:101FA000310541F42DB73EB7409104015091050130
:101FB000241B350BE0914702F0914802E217F3072A
:101FC000A0F42E1B3F0B2817390778F0AC014E5FA9
:101FD0005F4F2417350748F04E0F5F1F509348029C
:101FE00040934702819391939FCFF0E0E0E09CCF34
:101FF000CF93DF930097E9F0FC01329713821282AE
:10200000A0914902B0914A02ED0130E020E0109722
:10201000A1F420813181820F931F209147023091DA
:1020200048022817390709F061C0F0934802E0938D
:102030004702DF91CF910895EA01CE17DF07E8F557
:102040004A815B819E0141155105B1F7E901FB838E
:10205000EA8349915991C40FD51FEC17FD0761F42C
:10206000808191810296840F951FE901998388836D
:10207000828193819B838A83F0E0E0E012968D91C8
:102080009C9113970097B9F52D913C911197CD0133
:102090000296820F931F2091470230914802281721
:1020A000390739F6309751F510924A0210924902D9
:1020B000B0934802A0934702BCCFD383C283408130
:1020C0005181840F951FC817D90761F44E5F5F4F88
:1020D00088819981480F591F518340838A819B8150
:1020E000938382832115310509F0B0CFF0934A0222
:1020F000E09349029ECFFD01DC01C0CF1382128222
:10210000D7CFB0E0A0E0E7E8F0E10C943C0E8C0102
:10211000009751F4CB010E945C0F8C01C801CDB730
:10212000DEB7E0E10C94580EFC01E60FF71F9C01AE
:1021300022503109E217F30708F49DC0D901CD916F
:10214000DC911197C617D70798F0C530D10530F349
:10215000CE0104978617970708F3C61BD70B229763
:10216000C193D1936D937C93CF010E94F80FD6CF8A
:102170005B01AC1ABD0A4C018C0E9D1EA091490258
:10218000B0914A02512C412CF12CE12C109731F5E1
:1021900080914702909148028815990509F05CC02A
:1021A0004616570608F058C0809100019091010131
:1021B000009741F48DB79EB74091040150910501FD
:1021C000841B950BE817F90708F055C0F0934802F7
:1021D000E0934702F90171836083A0CF8D919C91B8
:1021E000119712966C90129713967C901397A815DE
:1021F000B90559F56C0142E0C40ED11CCA14DB04C8
:1022000020F1AC014A195B09DA011296159780F0AA
:102210006282738251834083D9016D937C93E11470
:10222000F10471F0D7011396FC93EE93129776CFD9
:1022300022968C0F9D1FF90191838083F301EFCFCC
:10224000F0934A02E093490269CF4816590608F410
:102250002C017D01D3019ACFCB010E945C0F7C0140
:10226000009749F0AE01B8010E943E11C8010E94DA
:10227000F80F870153CF10E000E050CFFB01DC01E5
:1022800002C001900D9241505040D8F70895FB01D3
:10229000DC0101900D920020E1F7089510E0CFEDF0
:1022A000D0E004C0FE010E94560F2196C03ED10727
:0622B000C9F7F894FFCF0E
:1022B60000004B028000000000000F026F019C012D
:1022C6005C02CD01AB01BF010000000096046F0166
:1022D60051035003426F64792054656D70657261D5
:1022E600747572653A0020202020202020202020AE
:1022F60020202020202000460061626E6F726D61F2
:042306006C20000047
:00000001FF
